{
  "contractName": "AgriAuction",
  "abi": [
    {
      "anonymous": false,
      "inputs": [
        {
          "indexed": false,
          "internalType": "address",
          "name": "winner",
          "type": "address"
        },
        {
          "indexed": false,
          "internalType": "uint256",
          "name": "amount",
          "type": "uint256"
        }
      ],
      "name": "AuctionEnded",
      "type": "event"
    },
    {
      "anonymous": false,
      "inputs": [
        {
          "indexed": false,
          "internalType": "address",
          "name": "bidder",
          "type": "address"
        },
        {
          "indexed": false,
          "internalType": "uint256",
          "name": "amount",
          "type": "uint256"
        }
      ],
      "name": "HighestBidIncreased",
      "type": "event"
    },
    {
      "inputs": [],
      "name": "buyoutPrice",
      "outputs": [
        {
          "internalType": "uint256",
          "name": "",
          "type": "uint256"
        }
      ],
      "stateMutability": "view",
      "type": "function",
      "constant": true
    },
    {
      "inputs": [],
      "name": "cropDetails",
      "outputs": [
        {
          "internalType": "string",
          "name": "",
          "type": "string"
        }
      ],
      "stateMutability": "view",
      "type": "function",
      "constant": true
    },
    {
      "inputs": [],
      "name": "endTime",
      "outputs": [
        {
          "internalType": "uint256",
          "name": "",
          "type": "uint256"
        }
      ],
      "stateMutability": "view",
      "type": "function",
      "constant": true
    },
    {
      "inputs": [],
      "name": "ended",
      "outputs": [
        {
          "internalType": "bool",
          "name": "",
          "type": "bool"
        }
      ],
      "stateMutability": "view",
      "type": "function",
      "constant": true
    },
    {
      "inputs": [],
      "name": "highestBid",
      "outputs": [
        {
          "internalType": "uint256",
          "name": "",
          "type": "uint256"
        }
      ],
      "stateMutability": "view",
      "type": "function",
      "constant": true
    },
    {
      "inputs": [],
      "name": "highestBidder",
      "outputs": [
        {
          "internalType": "address",
          "name": "",
          "type": "address"
        }
      ],
      "stateMutability": "view",
      "type": "function",
      "constant": true
    },
    {
      "inputs": [],
      "name": "minBid",
      "outputs": [
        {
          "internalType": "uint256",
          "name": "",
          "type": "uint256"
        }
      ],
      "stateMutability": "view",
      "type": "function",
      "constant": true
    },
    {
      "inputs": [
        {
          "internalType": "address",
          "name": "",
          "type": "address"
        }
      ],
      "name": "pendingReturns",
      "outputs": [
        {
          "internalType": "uint256",
          "name": "",
          "type": "uint256"
        }
      ],
      "stateMutability": "view",
      "type": "function",
      "constant": true
    },
    {
      "inputs": [],
      "name": "seller",
      "outputs": [
        {
          "internalType": "address payable",
          "name": "",
          "type": "address"
        }
      ],
      "stateMutability": "view",
      "type": "function",
      "constant": true
    },
    {
      "inputs": [
        {
          "internalType": "string",
          "name": "_cropDetails",
          "type": "string"
        },
        {
          "internalType": "uint256",
          "name": "_minBid",
          "type": "uint256"
        },
        {
          "internalType": "uint256",
          "name": "_buyoutPrice",
          "type": "uint256"
        },
        {
          "internalType": "uint256",
          "name": "_biddingTime",
          "type": "uint256"
        }
      ],
      "name": "createListing",
      "outputs": [],
      "stateMutability": "nonpayable",
      "type": "function"
    },
    {
      "inputs": [],
      "name": "placeBid",
      "outputs": [],
      "stateMutability": "payable",
      "type": "function",
      "payable": true
    },
    {
      "inputs": [],
      "name": "buyout",
      "outputs": [],
      "stateMutability": "payable",
      "type": "function",
      "payable": true
    },
    {
      "inputs": [],
      "name": "withdraw",
      "outputs": [
        {
          "internalType": "bool",
          "name": "",
          "type": "bool"
        }
      ],
      "stateMutability": "nonpayable",
      "type": "function"
    },
    {
      "inputs": [],
      "name": "finalizeAuction",
      "outputs": [],
      "stateMutability": "nonpayable",
      "type": "function"
    }
  ],
  "bytecode": "0x608060405234801561000f575f80fd5b506114f68061001d5f395ff3fe6080604052600436106100dc575f3560e01c8063752ccf601161007e57806391f901571161005857806391f9015714610274578063d57bde791461029e578063ecfc7ecc146102c8578063f77282ab146102d2576100dc565b8063752ccf60146101f85780637f3d06a6146102225780637f7bf92d1461024c576100dc565b80633197cbb6116100ba5780633197cbb6146101705780633ccfd60b1461019a5780633e109a19146101c45780635c4bfa10146101ee576100dc565b806308551a53146100e057806312fa6feb1461010a57806326b387bb14610134575b5f80fd5b3480156100eb575f80fd5b506100f46102e8565b6040516101019190610ba6565b60405180910390f35b348015610115575f80fd5b5061011e61030b565b60405161012b9190610bd9565b60405180910390f35b34801561013f575f80fd5b5061015a60048036038101906101559190610c3e565b61031d565b6040516101679190610c81565b60405180910390f35b34801561017b575f80fd5b50610184610332565b6040516101919190610c81565b60405180910390f35b3480156101a5575f80fd5b506101ae610338565b6040516101bb9190610bd9565b60405180910390f35b3480156101cf575f80fd5b506101d8610451565b6040516101e59190610c81565b60405180910390f35b6101f6610457565b005b348015610203575f80fd5b5061020c6106cf565b6040516102199190610d24565b60405180910390f35b34801561022d575f80fd5b5061023661075b565b6040516102439190610c81565b60405180910390f35b348015610257575f80fd5b50610272600480360381019061026d9190610e9a565b610761565b005b34801561027f575f80fd5b506102886107f6565b6040516102959190610f29565b60405180910390f35b3480156102a9575f80fd5b506102b261081b565b6040516102bf9190610c81565b60405180910390f35b6102d0610821565b005b3480156102dd575f80fd5b506102e66109f6565b005b5f8054906101000a900473ffffffffffffffffffffffffffffffffffffffff1681565b60075f9054906101000a900460ff1681565b6008602052805f5260405f205f915090505481565b60065481565b5f8060085f3373ffffffffffffffffffffffffffffffffffffffff1673ffffffffffffffffffffffffffffffffffffffff1681526020019081526020015f205490505f811115610448575f60085f3373ffffffffffffffffffffffffffffffffffffffff1673ffffffffffffffffffffffffffffffffffffffff1681526020019081526020015f20819055503373ffffffffffffffffffffffffffffffffffffffff166108fc8290811502906040515f60405180830381858888f19350505050610447578060085f3373ffffffffffffffffffffffffffffffffffffffff1673ffffffffffffffffffffffffffffffffffffffff1681526020019081526020015f20819055505f91505061044e565b5b60019150505b90565b60025481565b600654421061049b576040517f08c379a000000000000000000000000000000000000000000000000000000000815260040161049290610f8c565b60405180910390fd5b6003543410156104e0576040517f08c379a00000000000000000000000000000000000000000000000000000000081526004016104d790610ff4565b60405180910390fd5b5f73ffffffffffffffffffffffffffffffffffffffff1660055f9054906101000a900473ffffffffffffffffffffffffffffffffffffffff1673ffffffffffffffffffffffffffffffffffffffff16146105ab5760045460085f60055f9054906101000a900473ffffffffffffffffffffffffffffffffffffffff1673ffffffffffffffffffffffffffffffffffffffff1673ffffffffffffffffffffffffffffffffffffffff1681526020019081526020015f205f8282546105a3919061103f565b925050819055505b3360055f6101000a81548173ffffffffffffffffffffffffffffffffffffffff021916908373ffffffffffffffffffffffffffffffffffffffff16021790555034600481905550600160075f6101000a81548160ff0219169083151502179055507fdaec4582d5d9595688c8c98545fdd1c696d41c6aeaeb636737e84ed2f5c00eda60055f9054906101000a900473ffffffffffffffffffffffffffffffffffffffff16600454604051610660929190611072565b60405180910390a15f8054906101000a900473ffffffffffffffffffffffffffffffffffffffff1673ffffffffffffffffffffffffffffffffffffffff166108fc60045490811502906040515f60405180830381858888f193505050501580156106cc573d5f803e3d5ffd5b50565b600180546106dc906110c6565b80601f0160208091040260200160405190810160405280929190818152602001828054610708906110c6565b80156107535780601f1061072a57610100808354040283529160200191610753565b820191905f5260205f20905b81548152906001019060200180831161073657829003601f168201915b505050505081565b60035481565b335f806101000a81548173ffffffffffffffffffffffffffffffffffffffff021916908373ffffffffffffffffffffffffffffffffffffffff16021790555083600190816107af9190611293565b5082600281905550826004819055508160038190555080426107d1919061103f565b6006819055505f60075f6101000a81548160ff02191690831515021790555050505050565b60055f9054906101000a900473ffffffffffffffffffffffffffffffffffffffff1681565b60045481565b6006544210610865576040517f08c379a000000000000000000000000000000000000000000000000000000000815260040161085c90610f8c565b60405180910390fd5b60045434116108a9576040517f08c379a00000000000000000000000000000000000000000000000000000000081526004016108a0906113ac565b60405180910390fd5b5f73ffffffffffffffffffffffffffffffffffffffff1660055f9054906101000a900473ffffffffffffffffffffffffffffffffffffffff1673ffffffffffffffffffffffffffffffffffffffff16146109745760045460085f60055f9054906101000a900473ffffffffffffffffffffffffffffffffffffffff1673ffffffffffffffffffffffffffffffffffffffff1673ffffffffffffffffffffffffffffffffffffffff1681526020019081526020015f205f82825461096c919061103f565b925050819055505b3360055f6101000a81548173ffffffffffffffffffffffffffffffffffffffff021916908373ffffffffffffffffffffffffffffffffffffffff160217905550346004819055507ff4757a49b326036464bec6fe419a4ae38c8a02ce3e68bf0809674f6aab8ad30033346040516109ec929190611072565b60405180910390a1565b600654421015610a3b576040517f08c379a0000000000000000000000000000000000000000000000000000000008152600401610a3290611414565b60405180910390fd5b60075f9054906101000a900460ff1615610a8a576040517f08c379a0000000000000000000000000000000000000000000000000000000008152600401610a81906114a2565b60405180910390fd5b600160075f6101000a81548160ff0219169083151502179055507fdaec4582d5d9595688c8c98545fdd1c696d41c6aeaeb636737e84ed2f5c00eda60055f9054906101000a900473ffffffffffffffffffffffffffffffffffffffff16600454604051610af8929190611072565b60405180910390a15f8054906101000a900473ffffffffffffffffffffffffffffffffffffffff1673ffffffffffffffffffffffffffffffffffffffff166108fc60045490811502906040515f60405180830381858888f19350505050158015610b64573d5f803e3d5ffd5b50565b5f73ffffffffffffffffffffffffffffffffffffffff82169050919050565b5f610b9082610b67565b9050919050565b610ba081610b86565b82525050565b5f602082019050610bb95f830184610b97565b92915050565b5f8115159050919050565b610bd381610bbf565b82525050565b5f602082019050610bec5f830184610bca565b92915050565b5f604051905090565b5f80fd5b5f80fd5b5f610c0d82610b67565b9050919050565b610c1d81610c03565b8114610c27575f80fd5b50565b5f81359050610c3881610c14565b92915050565b5f60208284031215610c5357610c52610bfb565b5b5f610c6084828501610c2a565b91505092915050565b5f819050919050565b610c7b81610c69565b82525050565b5f602082019050610c945f830184610c72565b92915050565b5f81519050919050565b5f82825260208201905092915050565b5f5b83811015610cd1578082015181840152602081019050610cb6565b5f8484015250505050565b5f601f19601f8301169050919050565b5f610cf682610c9a565b610d008185610ca4565b9350610d10818560208601610cb4565b610d1981610cdc565b840191505092915050565b5f6020820190508181035f830152610d3c8184610cec565b905092915050565b5f80fd5b5f80fd5b7f4e487b71000000000000000000000000000000000000000000000000000000005f52604160045260245ffd5b610d8282610cdc565b810181811067ffffffffffffffff82111715610da157610da0610d4c565b5b80604052505050565b5f610db3610bf2565b9050610dbf8282610d79565b919050565b5f67ffffffffffffffff821115610dde57610ddd610d4c565b5b610de782610cdc565b9050602081019050919050565b828183375f83830152505050565b5f610e14610e0f84610dc4565b610daa565b905082815260208101848484011115610e3057610e2f610d48565b5b610e3b848285610df4565b509392505050565b5f82601f830112610e5757610e56610d44565b5b8135610e67848260208601610e02565b91505092915050565b610e7981610c69565b8114610e83575f80fd5b50565b5f81359050610e9481610e70565b92915050565b5f805f8060808587031215610eb257610eb1610bfb565b5b5f85013567ffffffffffffffff811115610ecf57610ece610bff565b5b610edb87828801610e43565b9450506020610eec87828801610e86565b9350506040610efd87828801610e86565b9250506060610f0e87828801610e86565b91505092959194509250565b610f2381610c03565b82525050565b5f602082019050610f3c5f830184610f1a565b92915050565b7f41756374696f6e20616c726561647920656e6465642e000000000000000000005f82015250565b5f610f76601683610ca4565b9150610f8182610f42565b602082019050919050565b5f6020820190508181035f830152610fa381610f6a565b9050919050565b7f46756e647320646f206e6f74206d656574206275796f75742070726963652e005f82015250565b5f610fde601f83610ca4565b9150610fe982610faa565b602082019050919050565b5f6020820190508181035f83015261100b81610fd2565b9050919050565b7f4e487b71000000000000000000000000000000000000000000000000000000005f52601160045260245ffd5b5f61104982610c69565b915061105483610c69565b925082820190508082111561106c5761106b611012565b5b92915050565b5f6040820190506110855f830185610f1a565b6110926020830184610c72565b9392505050565b7f4e487b71000000000000000000000000000000000000000000000000000000005f52602260045260245ffd5b5f60028204905060018216806110dd57607f821691505b6020821081036110f0576110ef611099565b5b50919050565b5f819050815f5260205f209050919050565b5f6020601f8301049050919050565b5f82821b905092915050565b5f600883026111527fffffffffffffffffffffffffffffffffffffffffffffffffffffffffffffffff82611117565b61115c8683611117565b95508019841693508086168417925050509392505050565b5f819050919050565b5f61119761119261118d84610c69565b611174565b610c69565b9050919050565b5f819050919050565b6111b08361117d565b6111c46111bc8261119e565b848454611123565b825550505050565b5f90565b6111d86111cc565b6111e38184846111a7565b505050565b5b81811015611206576111fb5f826111d0565b6001810190506111e9565b5050565b601f82111561124b5761121c816110f6565b61122584611108565b81016020851015611234578190505b61124861124085611108565b8301826111e8565b50505b505050565b5f82821c905092915050565b5f61126b5f1984600802611250565b1980831691505092915050565b5f611283838361125c565b9150826002028217905092915050565b61129c82610c9a565b67ffffffffffffffff8111156112b5576112b4610d4c565b5b6112bf82546110c6565b6112ca82828561120a565b5f60209050601f8311600181146112fb575f84156112e9578287015190505b6112f38582611278565b86555061135a565b601f198416611309866110f6565b5f5b828110156113305784890151825560018201915060208501945060208101905061130b565b8683101561134d5784890151611349601f89168261125c565b8355505b6001600288020188555050505b505050505050565b7f546865726520616c7265616479206973206120686967686572206269642e00005f82015250565b5f611396601e83610ca4565b91506113a182611362565b602082019050919050565b5f6020820190508181035f8301526113c38161138a565b9050919050565b7f41756374696f6e206e6f742079657420656e6465642e000000000000000000005f82015250565b5f6113fe601683610ca4565b9150611409826113ca565b602082019050919050565b5f6020820190508181035f83015261142b816113f2565b9050919050565b7f66696e616c697a6541756374696f6e2068617320616c7265616479206265656e5f8201527f2063616c6c65642e000000000000000000000000000000000000000000000000602082015250565b5f61148c602883610ca4565b915061149782611432565b604082019050919050565b5f6020820190508181035f8301526114b981611480565b905091905056fea26469706673582212205b2df5e18a75d6f11dc2794a3fe44688129aefee87f7fcf770bd22b9df51fe1a64736f6c63430008150033",
  "immutableReferences": {},
  "source": "// SPDX-License-Identifier: MIT\npragma solidity ^0.8.0;\n\ncontract AgriAuction {\n    address payable public seller; // [cite: 234]\n    string public cropDetails; // [cite: 235]\n    uint256 public minBid; // [cite: 236]\n    uint256 public buyoutPrice; // [cite: 237]\n    uint256 public highestBid; // [cite: 238]\n    address public highestBidder; // [cite: 238]\n    uint256 public endTime; // [cite: 238]\n    bool public ended; // [cite: 239]\n\n    mapping(address => uint256) public pendingReturns; // [cite: 240]\n\n    event HighestBidIncreased(address bidder, uint256 amount); // [cite: 295]\n    event AuctionEnded(address winner, uint256 amount); // [cite: 295]\n\n    modifier onlyBeforeEnd() { // [cite: 302]\n        require(block.timestamp < endTime, \"Auction already ended.\");\n        _;\n    }\n\n    modifier onlySeller() { // [cite: 302]\n        require(msg.sender == seller, \"Only seller can call this.\");\n        _;\n    }\n\n    function createListing(\n        string memory _cropDetails,\n        uint256 _minBid,\n        uint256 _buyoutPrice,\n        uint256 _biddingTime\n    ) public { // [cite: 261]\n        seller = payable(msg.sender);\n        cropDetails = _cropDetails;\n        minBid = _minBid;\n        highestBid = _minBid;\n        buyoutPrice = _buyoutPrice;\n        endTime = block.timestamp + _biddingTime;\n        ended = false; // [cite: 261]\n    }\n\n    function placeBid() public payable onlyBeforeEnd { // [cite: 262]\n        require(msg.value > highestBid, \"There already is a higher bid.\"); // [cite: 266]\n\n        if (highestBidder != address(0)) {\n            pendingReturns[highestBidder] += highestBid; // [cite: 254]\n        }\n\n        highestBidder = msg.sender; // [cite: 266]\n        highestBid = msg.value; // [cite: 266]\n        emit HighestBidIncreased(msg.sender, msg.value);\n    }\n\n    function buyout() public payable onlyBeforeEnd { // [cite: 267]\n        require(msg.value >= buyoutPrice, \"Funds do not meet buyout price.\"); // [cite: 287]\n\n        if (highestBidder != address(0)) {\n            pendingReturns[highestBidder] += highestBid;\n        }\n\n        highestBidder = msg.sender;\n        highestBid = msg.value;\n        ended = true; // [cite: 267]\n        emit AuctionEnded(highestBidder, highestBid);\n        \n        seller.transfer(highestBid); // [cite: 288]\n    }\n\n    function withdraw() public returns (bool) { // [cite: 249]\n        uint256 amount = pendingReturns[msg.sender];\n        if (amount > 0) {\n            pendingReturns[msg.sender] = 0; // [cite: 300]\n            if (!payable(msg.sender).send(amount)) { // [cite: 300]\n                pendingReturns[msg.sender] = amount;\n                return false;\n            }\n        }\n        return true;\n    }\n\n    function finalizeAuction() public { // [cite: 269]\n        require(block.timestamp >= endTime, \"Auction not yet ended.\");\n        require(!ended, \"finalizeAuction has already been called.\");\n\n        ended = true; // [cite: 270]\n        emit AuctionEnded(highestBidder, highestBid);\n        seller.transfer(highestBid); // [cite: 270]\n    }\n}",
  "sourcePath": "/home/wsluser/agriCrop/agricrop-hub/contracts/AgriAuction.sol",
  "compiler": {
    "name": "solc",
    "version": "0.8.21+commit.d9974bed.Emscripten.clang"
  },
  "schemaVersion": "3.4.16",
  "updatedAt": "2026-05-24T11:34:31.795Z",
  "networkType": "ethereum",
  "devdoc": {
    "kind": "dev",
    "methods": {},
    "version": 1
  },
  "userdoc": {
    "kind": "user",
    "methods": {},
    "version": 1
  }
}