{
  "contractName": "AgriMarketplace",
  "abi": [
    {
      "anonymous": false,
      "inputs": [
        {
          "indexed": true,
          "internalType": "uint256",
          "name": "auctionId",
          "type": "uint256"
        },
        {
          "indexed": false,
          "internalType": "address",
          "name": "winner",
          "type": "address"
        },
        {
          "indexed": false,
          "internalType": "uint256",
          "name": "amount",
          "type": "uint256"
        }
      ],
      "name": "AuctionEnded",
      "type": "event"
    },
    {
      "anonymous": false,
      "inputs": [
        {
          "indexed": true,
          "internalType": "uint256",
          "name": "auctionId",
          "type": "uint256"
        },
        {
          "indexed": false,
          "internalType": "address",
          "name": "bidder",
          "type": "address"
        },
        {
          "indexed": false,
          "internalType": "uint256",
          "name": "amount",
          "type": "uint256"
        }
      ],
      "name": "HighestBidIncreased",
      "type": "event"
    },
    {
      "anonymous": false,
      "inputs": [
        {
          "indexed": true,
          "internalType": "uint256",
          "name": "auctionId",
          "type": "uint256"
        },
        {
          "indexed": false,
          "internalType": "address",
          "name": "seller",
          "type": "address"
        },
        {
          "indexed": false,
          "internalType": "string",
          "name": "cropDetails",
          "type": "string"
        }
      ],
      "name": "ListingCreated",
      "type": "event"
    },
    {
      "inputs": [
        {
          "internalType": "uint256",
          "name": "",
          "type": "uint256"
        }
      ],
      "name": "auctions",
      "outputs": [
        {
          "internalType": "uint256",
          "name": "id",
          "type": "uint256"
        },
        {
          "internalType": "address payable",
          "name": "seller",
          "type": "address"
        },
        {
          "internalType": "string",
          "name": "cropDetails",
          "type": "string"
        },
        {
          "internalType": "uint256",
          "name": "minBid",
          "type": "uint256"
        },
        {
          "internalType": "uint256",
          "name": "buyoutPrice",
          "type": "uint256"
        },
        {
          "internalType": "uint256",
          "name": "highestBid",
          "type": "uint256"
        },
        {
          "internalType": "address",
          "name": "highestBidder",
          "type": "address"
        },
        {
          "internalType": "uint256",
          "name": "endTime",
          "type": "uint256"
        },
        {
          "internalType": "bool",
          "name": "ended",
          "type": "bool"
        }
      ],
      "stateMutability": "view",
      "type": "function",
      "constant": true
    },
    {
      "inputs": [],
      "name": "listingCounter",
      "outputs": [
        {
          "internalType": "uint256",
          "name": "",
          "type": "uint256"
        }
      ],
      "stateMutability": "view",
      "type": "function",
      "constant": true
    },
    {
      "inputs": [
        {
          "internalType": "address",
          "name": "",
          "type": "address"
        }
      ],
      "name": "pendingReturns",
      "outputs": [
        {
          "internalType": "uint256",
          "name": "",
          "type": "uint256"
        }
      ],
      "stateMutability": "view",
      "type": "function",
      "constant": true
    },
    {
      "inputs": [
        {
          "internalType": "string",
          "name": "_cropDetails",
          "type": "string"
        },
        {
          "internalType": "uint256",
          "name": "_minBid",
          "type": "uint256"
        },
        {
          "internalType": "uint256",
          "name": "_buyoutPrice",
          "type": "uint256"
        },
        {
          "internalType": "uint256",
          "name": "_biddingTime",
          "type": "uint256"
        }
      ],
      "name": "createListing",
      "outputs": [],
      "stateMutability": "nonpayable",
      "type": "function"
    },
    {
      "inputs": [
        {
          "internalType": "uint256",
          "name": "_auctionId",
          "type": "uint256"
        }
      ],
      "name": "placeBid",
      "outputs": [],
      "stateMutability": "payable",
      "type": "function",
      "payable": true
    },
    {
      "inputs": [
        {
          "internalType": "uint256",
          "name": "_auctionId",
          "type": "uint256"
        }
      ],
      "name": "buyout",
      "outputs": [],
      "stateMutability": "payable",
      "type": "function",
      "payable": true
    },
    {
      "inputs": [],
      "name": "withdraw",
      "outputs": [
        {
          "internalType": "bool",
          "name": "",
          "type": "bool"
        }
      ],
      "stateMutability": "nonpayable",
      "type": "function"
    },
    {
      "inputs": [
        {
          "internalType": "uint256",
          "name": "_auctionId",
          "type": "uint256"
        }
      ],
      "name": "finalizeAuction",
      "outputs": [],
      "stateMutability": "nonpayable",
      "type": "function"
    }
  ],
  "bytecode": "0x60806040525f8055348015610012575f80fd5b5061181d806100205f395ff3fe60806040526004361061007a575f3560e01c80636c2c9c7d1161004d5780636c2c9c7d146101445780637f7bf92d1461016e5780639979ef4514610196578063e8083863146101b25761007a565b806307bec66f1461007e57806326b387bb1461009a5780633ccfd60b146100d6578063571a26a014610100575b5f80fd5b61009860048036038101906100939190610d8a565b6101da565b005b3480156100a5575f80fd5b506100c060048036038101906100bb9190610e0f565b610495565b6040516100cd9190610e49565b60405180910390f35b3480156100e1575f80fd5b506100ea6104aa565b6040516100f79190610e7c565b60405180910390f35b34801561010b575f80fd5b5061012660048036038101906101219190610d8a565b6105c3565b60405161013b99989796959493929190610f4e565b60405180910390f35b34801561014f575f80fd5b506101586106dd565b6040516101659190610e49565b60405180910390f35b348015610179575f80fd5b50610194600480360381019061018f919061110c565b6106e2565b005b6101b060048036038101906101ab9190610d8a565b6108ba565b005b3480156101bd575f80fd5b506101d860048036038101906101d39190610d8a565b610ac6565b005b8060015f8281526020019081526020015f20600701544210610231576040517f08c379a0000000000000000000000000000000000000000000000000000000008152600401610228906111d6565b60405180910390fd5b5f60015f8481526020019081526020015f209050806004015434101561028c576040517f08c379a00000000000000000000000000000000000000000000000000000000081526004016102839061123e565b60405180910390fd5b5f73ffffffffffffffffffffffffffffffffffffffff16816006015f9054906101000a900473ffffffffffffffffffffffffffffffffffffffff1673ffffffffffffffffffffffffffffffffffffffff161461035d57806005015460025f836006015f9054906101000a900473ffffffffffffffffffffffffffffffffffffffff1673ffffffffffffffffffffffffffffffffffffffff1673ffffffffffffffffffffffffffffffffffffffff1681526020019081526020015f205f8282546103559190611289565b925050819055505b33816006015f6101000a81548173ffffffffffffffffffffffffffffffffffffffff021916908373ffffffffffffffffffffffffffffffffffffffff1602179055503481600501819055506001816008015f6101000a81548160ff021916908315150217905550827fd2aa34a4fdbbc6dff6a3e56f46e0f3ae2a31d7785ff3487aa5c95c642acea501826006015f9054906101000a900473ffffffffffffffffffffffffffffffffffffffff16836005015460405161041d9291906112bc565b60405180910390a2806001015f9054906101000a900473ffffffffffffffffffffffffffffffffffffffff1673ffffffffffffffffffffffffffffffffffffffff166108fc826005015490811502906040515f60405180830381858888f1935050505015801561048f573d5f803e3d5ffd5b50505050565b6002602052805f5260405f205f915090505481565b5f8060025f3373ffffffffffffffffffffffffffffffffffffffff1673ffffffffffffffffffffffffffffffffffffffff1681526020019081526020015f205490505f8111156105ba575f60025f3373ffffffffffffffffffffffffffffffffffffffff1673ffffffffffffffffffffffffffffffffffffffff1681526020019081526020015f20819055503373ffffffffffffffffffffffffffffffffffffffff166108fc8290811502906040515f60405180830381858888f193505050506105b9578060025f3373ffffffffffffffffffffffffffffffffffffffff1673ffffffffffffffffffffffffffffffffffffffff1681526020019081526020015f20819055505f9150506105c0565b5b60019150505b90565b6001602052805f5260405f205f91509050805f015490806001015f9054906101000a900473ffffffffffffffffffffffffffffffffffffffff169080600201805461060d90611310565b80601f016020809104026020016040519081016040528092919081815260200182805461063990611310565b80156106845780601f1061065b57610100808354040283529160200191610684565b820191905f5260205f20905b81548152906001019060200180831161066757829003601f168201915b505050505090806003015490806004015490806005015490806006015f9054906101000a900473ffffffffffffffffffffffffffffffffffffffff1690806007015490806008015f9054906101000a900460ff16905089565b5f5481565b5f808154809291906106f390611340565b91905055506040518061012001604052805f5481526020013373ffffffffffffffffffffffffffffffffffffffff1681526020018581526020018481526020018381526020018481526020015f73ffffffffffffffffffffffffffffffffffffffff16815260200182426107679190611289565b81526020015f151581525060015f805481526020019081526020015f205f820151815f01556020820151816001015f6101000a81548173ffffffffffffffffffffffffffffffffffffffff021916908373ffffffffffffffffffffffffffffffffffffffff16021790555060408201518160020190816107e79190611524565b50606082015181600301556080820151816004015560a0820151816005015560c0820151816006015f6101000a81548173ffffffffffffffffffffffffffffffffffffffff021916908373ffffffffffffffffffffffffffffffffffffffff16021790555060e08201518160070155610100820151816008015f6101000a81548160ff0219169083151502179055509050505f547ffccfab3757a37767d03b5ffd499faaa9faf5a6d33900ee43e310e77bce34940b33866040516108ac9291906115f3565b60405180910390a250505050565b8060015f8281526020019081526020015f20600701544210610911576040517f08c379a0000000000000000000000000000000000000000000000000000000008152600401610908906111d6565b60405180910390fd5b5f60015f8481526020019081526020015f2090508060050154341161096b576040517f08c379a00000000000000000000000000000000000000000000000000000000081526004016109629061166b565b60405180910390fd5b5f73ffffffffffffffffffffffffffffffffffffffff16816006015f9054906101000a900473ffffffffffffffffffffffffffffffffffffffff1673ffffffffffffffffffffffffffffffffffffffff1614610a3c57806005015460025f836006015f9054906101000a900473ffffffffffffffffffffffffffffffffffffffff1673ffffffffffffffffffffffffffffffffffffffff1673ffffffffffffffffffffffffffffffffffffffff1681526020019081526020015f205f828254610a349190611289565b925050819055505b33816006015f6101000a81548173ffffffffffffffffffffffffffffffffffffffff021916908373ffffffffffffffffffffffffffffffffffffffff160217905550348160050181905550827fda0a18da71d8ebd145966339a728fc0d8ccc07c22870d561890d823c515dda6b3334604051610ab99291906112bc565b60405180910390a2505050565b5f60015f8381526020019081526020015f2090508060070154421015610b21576040517f08c379a0000000000000000000000000000000000000000000000000000000008152600401610b18906116d3565b60405180910390fd5b806008015f9054906101000a900460ff1615610b72576040517f08c379a0000000000000000000000000000000000000000000000000000000008152600401610b6990611761565b60405180910390fd5b806001015f9054906101000a900473ffffffffffffffffffffffffffffffffffffffff1673ffffffffffffffffffffffffffffffffffffffff163373ffffffffffffffffffffffffffffffffffffffff1614610c03576040517f08c379a0000000000000000000000000000000000000000000000000000000008152600401610bfa906117c9565b60405180910390fd5b6001816008015f6101000a81548160ff021916908315150217905550817fd2aa34a4fdbbc6dff6a3e56f46e0f3ae2a31d7785ff3487aa5c95c642acea501826006015f9054906101000a900473ffffffffffffffffffffffffffffffffffffffff168360050154604051610c789291906112bc565b60405180910390a25f73ffffffffffffffffffffffffffffffffffffffff16816006015f9054906101000a900473ffffffffffffffffffffffffffffffffffffffff1673ffffffffffffffffffffffffffffffffffffffff1614610d4257806001015f9054906101000a900473ffffffffffffffffffffffffffffffffffffffff1673ffffffffffffffffffffffffffffffffffffffff166108fc826005015490811502906040515f60405180830381858888f19350505050158015610d40573d5f803e3d5ffd5b505b5050565b5f604051905090565b5f80fd5b5f80fd5b5f819050919050565b610d6981610d57565b8114610d73575f80fd5b50565b5f81359050610d8481610d60565b92915050565b5f60208284031215610d9f57610d9e610d4f565b5b5f610dac84828501610d76565b91505092915050565b5f73ffffffffffffffffffffffffffffffffffffffff82169050919050565b5f610dde82610db5565b9050919050565b610dee81610dd4565b8114610df8575f80fd5b50565b5f81359050610e0981610de5565b92915050565b5f60208284031215610e2457610e23610d4f565b5b5f610e3184828501610dfb565b91505092915050565b610e4381610d57565b82525050565b5f602082019050610e5c5f830184610e3a565b92915050565b5f8115159050919050565b610e7681610e62565b82525050565b5f602082019050610e8f5f830184610e6d565b92915050565b5f610e9f82610db5565b9050919050565b610eaf81610e95565b82525050565b5f81519050919050565b5f82825260208201905092915050565b5f5b83811015610eec578082015181840152602081019050610ed1565b5f8484015250505050565b5f601f19601f8301169050919050565b5f610f1182610eb5565b610f1b8185610ebf565b9350610f2b818560208601610ecf565b610f3481610ef7565b840191505092915050565b610f4881610dd4565b82525050565b5f61012082019050610f625f83018c610e3a565b610f6f602083018b610ea6565b8181036040830152610f81818a610f07565b9050610f906060830189610e3a565b610f9d6080830188610e3a565b610faa60a0830187610e3a565b610fb760c0830186610f3f565b610fc460e0830185610e3a565b610fd2610100830184610e6d565b9a9950505050505050505050565b5f80fd5b5f80fd5b7f4e487b71000000000000000000000000000000000000000000000000000000005f52604160045260245ffd5b61101e82610ef7565b810181811067ffffffffffffffff8211171561103d5761103c610fe8565b5b80604052505050565b5f61104f610d46565b905061105b8282611015565b919050565b5f67ffffffffffffffff82111561107a57611079610fe8565b5b61108382610ef7565b9050602081019050919050565b828183375f83830152505050565b5f6110b06110ab84611060565b611046565b9050828152602081018484840111156110cc576110cb610fe4565b5b6110d7848285611090565b509392505050565b5f82601f8301126110f3576110f2610fe0565b5b813561110384826020860161109e565b91505092915050565b5f805f806080858703121561112457611123610d4f565b5b5f85013567ffffffffffffffff81111561114157611140610d53565b5b61114d878288016110df565b945050602061115e87828801610d76565b935050604061116f87828801610d76565b925050606061118087828801610d76565b91505092959194509250565b7f41756374696f6e20616c726561647920656e6465642e000000000000000000005f82015250565b5f6111c0601683610ebf565b91506111cb8261118c565b602082019050919050565b5f6020820190508181035f8301526111ed816111b4565b9050919050565b7f46756e647320646f206e6f74206d656574206275796f75742070726963652e005f82015250565b5f611228601f83610ebf565b9150611233826111f4565b602082019050919050565b5f6020820190508181035f8301526112558161121c565b9050919050565b7f4e487b71000000000000000000000000000000000000000000000000000000005f52601160045260245ffd5b5f61129382610d57565b915061129e83610d57565b92508282019050808211156112b6576112b561125c565b5b92915050565b5f6040820190506112cf5f830185610f3f565b6112dc6020830184610e3a565b9392505050565b7f4e487b71000000000000000000000000000000000000000000000000000000005f52602260045260245ffd5b5f600282049050600182168061132757607f821691505b60208210810361133a576113396112e3565b5b50919050565b5f61134a82610d57565b91507fffffffffffffffffffffffffffffffffffffffffffffffffffffffffffffffff820361137c5761137b61125c565b5b600182019050919050565b5f819050815f5260205f209050919050565b5f6020601f8301049050919050565b5f82821b905092915050565b5f600883026113e37fffffffffffffffffffffffffffffffffffffffffffffffffffffffffffffffff826113a8565b6113ed86836113a8565b95508019841693508086168417925050509392505050565b5f819050919050565b5f61142861142361141e84610d57565b611405565b610d57565b9050919050565b5f819050919050565b6114418361140e565b61145561144d8261142f565b8484546113b4565b825550505050565b5f90565b61146961145d565b611474818484611438565b505050565b5b818110156114975761148c5f82611461565b60018101905061147a565b5050565b601f8211156114dc576114ad81611387565b6114b684611399565b810160208510156114c5578190505b6114d96114d185611399565b830182611479565b50505b505050565b5f82821c905092915050565b5f6114fc5f19846008026114e1565b1980831691505092915050565b5f61151483836114ed565b9150826002028217905092915050565b61152d82610eb5565b67ffffffffffffffff81111561154657611545610fe8565b5b6115508254611310565b61155b82828561149b565b5f60209050601f83116001811461158c575f841561157a578287015190505b6115848582611509565b8655506115eb565b601f19841661159a86611387565b5f5b828110156115c15784890151825560018201915060208501945060208101905061159c565b868310156115de57848901516115da601f8916826114ed565b8355505b6001600288020188555050505b505050505050565b5f6040820190506116065f830185610f3f565b81810360208301526116188184610f07565b90509392505050565b7f546865726520616c7265616479206973206120686967686572206269642e00005f82015250565b5f611655601e83610ebf565b915061166082611621565b602082019050919050565b5f6020820190508181035f83015261168281611649565b9050919050565b7f41756374696f6e206e6f742079657420656e6465642e000000000000000000005f82015250565b5f6116bd601683610ebf565b91506116c882611689565b602082019050919050565b5f6020820190508181035f8301526116ea816116b1565b9050919050565b7f66696e616c697a6541756374696f6e2068617320616c7265616479206265656e5f8201527f2063616c6c65642e000000000000000000000000000000000000000000000000602082015250565b5f61174b602883610ebf565b9150611756826116f1565b604082019050919050565b5f6020820190508181035f8301526117788161173f565b9050919050565b7f4f6e6c79207468652073656c6c65722063616e2066696e616c697a652e0000005f82015250565b5f6117b3601d83610ebf565b91506117be8261177f565b602082019050919050565b5f6020820190508181035f8301526117e0816117a7565b905091905056fea2646970667358221220e155039d1ad0ad23c8918eaabaa3a1583d5fca783b2aece33d01e8e0774b975164736f6c63430008150033",
  "immutableReferences": {},
  "source": "// SPDX-License-Identifier: MIT\npragma solidity ^0.8.0;\n\ncontract AgriMarketplace {\n    \n    // 1. The Blueprint for a single Auction\n    struct Auction {\n        uint256 id;\n        address payable seller;\n        string cropDetails;\n        uint256 minBid;\n        uint256 buyoutPrice;\n        uint256 highestBid;\n        address highestBidder;\n        uint256 endTime;\n        bool ended;\n    }\n\n    // 2. The Database holding all active/past auctions\n    uint256 public listingCounter = 0;\n    mapping(uint256 => Auction) public auctions;\n    \n    // Track pending returns globally (mapped by user address, then by auction ID if needed, \n    // but a global mapping is easier: userAddress => total pending ETH)\n    mapping(address => uint256) public pendingReturns;\n\n    event ListingCreated(uint256 indexed auctionId, address seller, string cropDetails);\n    event HighestBidIncreased(uint256 indexed auctionId, address bidder, uint256 amount);\n    event AuctionEnded(uint256 indexed auctionId, address winner, uint256 amount);\n\n    // Modifier now checks a specific auction ID\n    modifier onlyBeforeEnd(uint256 _auctionId) {\n        require(block.timestamp < auctions[_auctionId].endTime, \"Auction already ended.\");\n        _;\n    }\n\n    // Create a BRAND NEW auction without overwriting the others\n    function createListing(\n        string memory _cropDetails,\n        uint256 _minBid,\n        uint256 _buyoutPrice,\n        uint256 _biddingTime\n    ) public {\n        listingCounter++; // Increment ID for the new listing\n        \n        auctions[listingCounter] = Auction({\n            id: listingCounter,\n            seller: payable(msg.sender),\n            cropDetails: _cropDetails,\n            minBid: _minBid,\n            buyoutPrice: _buyoutPrice,\n            highestBid: _minBid,\n            highestBidder: address(0),\n            endTime: block.timestamp + _biddingTime,\n            ended: false\n        });\n\n        emit ListingCreated(listingCounter, msg.sender, _cropDetails);\n    }\n\n    function placeBid(uint256 _auctionId) public payable onlyBeforeEnd(_auctionId) {\n        Auction storage auction = auctions[_auctionId];\n        require(msg.value > auction.highestBid, \"There already is a higher bid.\");\n\n        if (auction.highestBidder != address(0)) {\n            pendingReturns[auction.highestBidder] += auction.highestBid;\n        }\n\n        auction.highestBidder = msg.sender;\n        auction.highestBid = msg.value;\n        \n        emit HighestBidIncreased(_auctionId, msg.sender, msg.value);\n    }\n\n    function buyout(uint256 _auctionId) public payable onlyBeforeEnd(_auctionId) {\n        Auction storage auction = auctions[_auctionId];\n        require(msg.value >= auction.buyoutPrice, \"Funds do not meet buyout price.\");\n\n        if (auction.highestBidder != address(0)) {\n            pendingReturns[auction.highestBidder] += auction.highestBid;\n        }\n\n        auction.highestBidder = msg.sender;\n        auction.highestBid = msg.value;\n        auction.ended = true; \n        \n        emit AuctionEnded(_auctionId, auction.highestBidder, auction.highestBid);\n        auction.seller.transfer(auction.highestBid);\n    }\n\n    // Pull over push remains the same, it just withdraws the user's total global balance\n    function withdraw() public returns (bool) {\n        uint256 amount = pendingReturns[msg.sender];\n        if (amount > 0) {\n            pendingReturns[msg.sender] = 0;\n            if (!payable(msg.sender).send(amount)) {\n                pendingReturns[msg.sender] = amount;\n                return false;\n            }\n        }\n        return true;\n    }\n\n    function finalizeAuction(uint256 _auctionId) public {\n        Auction storage auction = auctions[_auctionId];\n        require(block.timestamp >= auction.endTime, \"Auction not yet ended.\");\n        require(!auction.ended, \"finalizeAuction has already been called.\");\n        require(msg.sender == auction.seller, \"Only the seller can finalize.\");\n\n        auction.ended = true;\n        emit AuctionEnded(_auctionId, auction.highestBidder, auction.highestBid);\n        \n        if (auction.highestBidder != address(0)) {\n            auction.seller.transfer(auction.highestBid);\n        }\n    }\n}",
  "sourcePath": "/home/wsluser/agriCrop/agricrop-hub/contracts/AgriMarketplace.sol",
  "compiler": {
    "name": "solc",
    "version": "0.8.21+commit.d9974bed.Emscripten.clang"
  },
  "schemaVersion": "3.4.16",
  "updatedAt": "2026-05-24T11:41:23.530Z",
  "networkType": "ethereum",
  "devdoc": {
    "kind": "dev",
    "methods": {},
    "version": 1
  },
  "userdoc": {
    "kind": "user",
    "methods": {},
    "version": 1
  }
}